{
  "contractName": "Penugasan",
  "abi": [
    {
      "anonymous": false,
      "inputs": [
        {
          "indexed": false,
          "internalType": "uint256",
          "name": "id",
          "type": "uint256"
        },
        {
          "indexed": false,
          "internalType": "string",
          "name": "isiTugas",
          "type": "string"
        },
        {
          "indexed": false,
          "internalType": "bool",
          "name": "isSelesai",
          "type": "bool"
        },
        {
          "indexed": false,
          "internalType": "string",
          "name": "owner",
          "type": "string"
        }
      ],
      "name": "TugasDibuat",
      "type": "event"
    },
    {
      "anonymous": false,
      "inputs": [
        {
          "indexed": false,
          "internalType": "uint256",
          "name": "id",
          "type": "uint256"
        },
        {
          "indexed": false,
          "internalType": "bool",
          "name": "isSelesai",
          "type": "bool"
        }
      ],
      "name": "TugasDiselesaikan",
      "type": "event"
    },
    {
      "inputs": [
        {
          "internalType": "uint256",
          "name": "",
          "type": "uint256"
        }
      ],
      "name": "daftarTugas",
      "outputs": [
        {
          "internalType": "uint256",
          "name": "id",
          "type": "uint256"
        },
        {
          "internalType": "string",
          "name": "isiTugas",
          "type": "string"
        },
        {
          "internalType": "bool",
          "name": "isSelesai",
          "type": "bool"
        },
        {
          "internalType": "string",
          "name": "owner",
          "type": "string"
        }
      ],
      "stateMutability": "view",
      "type": "function",
      "constant": true
    },
    {
      "inputs": [],
      "name": "jumlahTugas",
      "outputs": [
        {
          "internalType": "uint256",
          "name": "",
          "type": "uint256"
        }
      ],
      "stateMutability": "view",
      "type": "function",
      "constant": true
    },
    {
      "inputs": [
        {
          "internalType": "string",
          "name": "_isiTugas",
          "type": "string"
        },
        {
          "internalType": "string",
          "name": "_owner",
          "type": "string"
        }
      ],
      "name": "buatTugas",
      "outputs": [],
      "stateMutability": "nonpayable",
      "type": "function"
    },
    {
      "inputs": [
        {
          "internalType": "uint256",
          "name": "_id",
          "type": "uint256"
        }
      ],
      "name": "tugasSelesai",
      "outputs": [],
      "stateMutability": "nonpayable",
      "type": "function"
    }
  ],
  "bytecode": "0x60806040526000805534801561001457600080fd5b50610c24806100246000396000f3fe608060405234801561001057600080fd5b506004361061004c5760003560e01c80631dc35da6146100515780633ae964f41461006f5780635526df041461008b578063b995b112146100be575b600080fd5b6100596100da565b604051610066919061043f565b60405180910390f35b610089600480360381019061008491906105b4565b6100e0565b005b6100a560048036038101906100a09190610658565b6101ce565b6040516100b5949392919061071f565b60405180910390f35b6100d860048036038101906100d39190610658565b61031b565b005b60005481565b6000808154809291906100f2906107a1565b91905055506040518060800160405280600054815260200183815260200160001515815260200182815250600160008054815260200190815260200160002060008201518160000155602082015181600101908161015091906109f5565b5060408201518160020160006101000a81548160ff021916908315150217905550606082015181600301908161018691906109f5565b509050507fdecfae10165a7398eb01796215a560e22dbbd155b1cc774b9d352a4669c24055600054836000846040516101c2949392919061071f565b60405180910390a15050565b60016020528060005260406000206000915090508060000154908060010180546101f790610818565b80601f016020809104026020016040519081016040528092919081815260200182805461022390610818565b80156102705780601f1061024557610100808354040283529160200191610270565b820191906000526020600020905b81548152906001019060200180831161025357829003601f168201915b5050505050908060020160009054906101000a900460ff169080600301805461029890610818565b80601f01602080910402602001604051908101604052809291908181526020018280546102c490610818565b80156103115780601f106102e657610100808354040283529160200191610311565b820191906000526020600020905b8154815290600101906020018083116102f457829003601f168201915b5050505050905084565b60006001600083815260200190815260200160002090508060020160009054906101000a900460ff16158160020160006101000a81548160ff021916908315150217905550806001600084815260200190815260200160002060008201548160000155600182018160010190816103929190610add565b506002820160009054906101000a900460ff168160020160006101000a81548160ff021916908315150217905550600382018160030190816103d49190610add565b509050507fb09893ff33135ad4cd671d22e5fdc1a39b3ab32f3024c7fae894827949499153828260020160009054906101000a900460ff1660405161041a929190610bc5565b60405180910390a15050565b6000819050919050565b61043981610426565b82525050565b60006020820190506104546000830184610430565b92915050565b6000604051905090565b600080fd5b600080fd5b600080fd5b600080fd5b6000601f19601f8301169050919050565b7f4e487b7100000000000000000000000000000000000000000000000000000000600052604160045260246000fd5b6104c182610478565b810181811067ffffffffffffffff821117156104e0576104df610489565b5b80604052505050565b60006104f361045a565b90506104ff82826104b8565b919050565b600067ffffffffffffffff82111561051f5761051e610489565b5b61052882610478565b9050602081019050919050565b82818337600083830152505050565b600061055761055284610504565b6104e9565b90508281526020810184848401111561057357610572610473565b5b61057e848285610535565b509392505050565b600082601f83011261059b5761059a61046e565b5b81356105ab848260208601610544565b91505092915050565b600080604083850312156105cb576105ca610464565b5b600083013567ffffffffffffffff8111156105e9576105e8610469565b5b6105f585828601610586565b925050602083013567ffffffffffffffff81111561061657610615610469565b5b61062285828601610586565b9150509250929050565b61063581610426565b811461064057600080fd5b50565b6000813590506106528161062c565b92915050565b60006020828403121561066e5761066d610464565b5b600061067c84828501610643565b91505092915050565b600081519050919050565b600082825260208201905092915050565b60005b838110156106bf5780820151818401526020810190506106a4565b60008484015250505050565b60006106d682610685565b6106e08185610690565b93506106f08185602086016106a1565b6106f981610478565b840191505092915050565b60008115159050919050565b61071981610704565b82525050565b60006080820190506107346000830187610430565b818103602083015261074681866106cb565b90506107556040830185610710565b818103606083015261076781846106cb565b905095945050505050565b7f4e487b7100000000000000000000000000000000000000000000000000000000600052601160045260246000fd5b60006107ac82610426565b91507fffffffffffffffffffffffffffffffffffffffffffffffffffffffffffffffff82036107de576107dd610772565b5b600182019050919050565b7f4e487b7100000000000000000000000000000000000000000000000000000000600052602260045260246000fd5b6000600282049050600182168061083057607f821691505b602082108103610843576108426107e9565b5b50919050565b60008190508160005260206000209050919050565b60006020601f8301049050919050565b600082821b905092915050565b6000600883026108ab7fffffffffffffffffffffffffffffffffffffffffffffffffffffffffffffffff8261086e565b6108b5868361086e565b95508019841693508086168417925050509392505050565b6000819050919050565b60006108f26108ed6108e884610426565b6108cd565b610426565b9050919050565b6000819050919050565b61090c836108d7565b610920610918826108f9565b84845461087b565b825550505050565b600090565b610935610928565b610940818484610903565b505050565b5b818110156109645761095960008261092d565b600181019050610946565b5050565b601f8211156109a95761097a81610849565b6109838461085e565b81016020851015610992578190505b6109a661099e8561085e565b830182610945565b50505b505050565b600082821c905092915050565b60006109cc600019846008026109ae565b1980831691505092915050565b60006109e583836109bb565b9150826002028217905092915050565b6109fe82610685565b67ffffffffffffffff811115610a1757610a16610489565b5b610a218254610818565b610a2c828285610968565b600060209050601f831160018114610a5f5760008415610a4d578287015190505b610a5785826109d9565b865550610abf565b601f198416610a6d86610849565b60005b82811015610a9557848901518255600182019150602085019450602081019050610a70565b86831015610ab25784890151610aae601f8916826109bb565b8355505b6001600288020188555050505b505050505050565b600081549050610ad681610818565b9050919050565b818103610aeb575050610bc3565b610af482610ac7565b67ffffffffffffffff811115610b0d57610b0c610489565b5b610b178254610818565b610b22828285610968565b6000601f831160018114610b515760008415610b3f578287015490505b610b4985826109d9565b865550610bbc565b601f198416610b5f87610849565b9650610b6a86610849565b60005b82811015610b9257848901548255600182019150600185019450602081019050610b6d565b86831015610baf5784890154610bab601f8916826109bb565b8355505b6001600288020188555050505b5050505050505b565b6000604082019050610bda6000830185610430565b610be76020830184610710565b939250505056fea26469706673582212205c32739e089948903f0776fa3f596c2ba4026c07aedadf8af09d0d4ac687175b64736f6c63430008130033",
  "immutableReferences": {},
  "source": "// SPDX-License-Identifier: MIT\npragma solidity >=0.4.22 <0.9.0;\n\ncontract Penugasan {\n    uint public jumlahTugas = 0;\n\n    struct Tugas {\n        uint id;\n        string isiTugas;\n        bool isSelesai;\n        string owner; // Menyimpan pemilik tugas (Orang 1 atau Orang 2)\n    }\n    mapping(uint => Tugas) public daftarTugas;\n\n    event TugasDibuat(uint id, string isiTugas, bool isSelesai, string owner);\n\n    function buatTugas(string memory _isiTugas, string memory _owner) public {\n        jumlahTugas++;\n        daftarTugas[jumlahTugas] = Tugas(jumlahTugas, _isiTugas, false, _owner);\n        emit TugasDibuat(jumlahTugas, _isiTugas, false, _owner);\n    }\n\n    event TugasDiselesaikan(uint id, bool isSelesai);\n\n    function tugasSelesai(uint _id) public {\n        Tugas storage _tugas = daftarTugas[_id];\n        _tugas.isSelesai = !_tugas.isSelesai;\n        daftarTugas[_id] = _tugas;\n        emit TugasDiselesaikan(_id, _tugas.isSelesai);\n    }\n}\n",
  "sourcePath": "I:\\Blockchain\\tugas_eth\\finalproject\\contracts\\Penugasan.sol",
  "compiler": {
    "name": "solc",
    "version": "0.8.19+commit.7dd6d404.Emscripten.clang"
  },
  "schemaVersion": "3.4.16",
  "updatedAt": "2025-02-04T06:31:44.019Z",
  "networkType": "ethereum",
  "devdoc": {
    "kind": "dev",
    "methods": {},
    "version": 1
  },
  "userdoc": {
    "kind": "user",
    "methods": {},
    "version": 1
  }
}